:040000006F208034B9
:100004000000000000000000900000206E070020A7
:10001400A9BDF9F528080020000000000000000038
:1000240028080020900000200000000000000000CC
:10003400900000200000000090000020000000005C
:1000440090000020900000209000002090000020EC
:100054009000002074220020900000200000000086
:1000640090000020900000209000002090000020CC
:100074008E08002090000020A4080020900000209A
:1000840090000020900000209000002090000020AC
:1000940001A04111814601468145114506C6EF1074
:1000A400E008B727004011472383E780B7F700E053
:1000B400938707D0984B6D9B98CB984B5D9B98CBBF
:1000C4007300501001000100B2404101828001110F
:1000D400814601468145114506CEEF102005B7271C
:1000E400004011472383E780B717004083C6E70227
:1000F40003C5E7041307800893F6C60F136535009C
:1001040093E61600733607801376860832C0010022
:100114000100930570052380B704130680FA238039
:10012400C704010001002382070223800704024858
:100134007328088001000100733807801378880849
:1001440042C2010001002380B7042380C7040100D8
:1001540001002387D7022387A7042380070492463C
:10016400F3A6068001000100F336078093F68608A3
:1001740036C4010001002380B7042380C7040100B2
:10018400010083C6B70493E60602A385D70423803F
:100194000704A246F3A6068001000100B7F600E0BA
:1001A400938606D0884A1365450088CA884A5D99B3
:1001B40088CA730050100100010073370780137759
:1001C40087083AC6010001002380B7042380C704CE
:1001D4000100010003C7B7041377F70DA385E704F3
:1001E40023800704B247F3A7078001000100F2400F
:1001F400056182803971B7F5070022DC81462A84C3
:100204003010E105194506DE02D423160102EF0081
:10021400F071B717004083C6E70203C5E70413076C
:10022400800893F6C60F1365350093E616007336FF
:1002340007801376860832C6010001009305700515
:100244002380B704130680FA2380C7040100010049
:1002540023820702238007043248732808800100A0
:100264000100733807801378880842C80100010030
:100274002380B7042380C704010001002387D70229
:100284002387A70423800704C246F3A6068001003F
:100294000100F336078093F6860836CA0100010090
:1002A4002380B7042380C7040100010083D607021A
:1002B40071757D15E98E2390D70223800704D246F9
:1002C400F3A606800100010037F500E0832605D17E
:1002D40093E646002328D5D083D607026575110519
:1002E40093F60660C18EC98EC206C182733507803B
:1002F400137585082ACC010001002380B7042380EC
:10030400C7040100010003C5F70013650504A387B2
:10031400A7002390D70223800704E246F3A60680B1
:10032400010001009166758C1DE87337078013770F
:1003340087083ACE010001002380B7042380C70454
:100344000100010003C7B70413670702A385E7048C
:1003540023800704F247F3A707800100010037F761
:1003640000E0832707D1DD9B2328F7D073005010CA
:100374000100010013078008F337078093F787080B
:100384003ED001000100B71700401305700523801B
:10039400A704930580FA2380B7040100010083D6E3
:1003A400070271767D16F18E2390D702238007040D
:1003B4008256F3A60680010001000DEC7337078016
:1003C400137787083AD2010001002380A704238011
:1003D400B7040100010003C7B7041377F70DA38521
:1003E400E704238007049257F3A707800100010064
:1003F4005145FD2EF250625421618280397152D4EC
:1004040081462A8A01468145114522DC26DA06DE28
:100414004AD84ED637140040EF0050518347E402C7
:100424000347E4049304800893F7C70F1367370066
:1004340093E71700F3B6048093F6860836C60100E6
:1004440001009309700523003405130980FA230081
:100454002405010001002302040223000404B2461F
:10046400F3A6068001000100F3B6048093F6860823
:1004740036C80100010023003405230024050100CF
:1004840001002307F4022307E40423000404C24701
:10049400F3A707800100010013055002D928B7F71C
:1004A40000E0938707D0984B1367470098CB73B746
:1004B4000480137787083ACA010001002300340539
:1004C40023002405010001000347F4001367070417
:1004D400A307E400230004045247732707800100A4
:1004E400010073B70480137787083ACC0100010038
:1004F4002300340523002405010001002167336A29
:10050400EA0023104403230004046247732707808E
:1005140001000100984B5D9B98CB730050100100C3
:1005240001008146014681451145EF003040F3B496
:10053400048093F4840826CE0100010023003405CE
:1005440023002405010001008347640493E7170096
:100554002303F40423000404F247F3A707800100F3
:100564000100F2506254D2544259B259225A2161C4
:100574008280011113078008F337078093F78708F7
:100584003EC201000100B7170040930570052380A7
:10059400B704130680FA2380C7040100010083C650
:1005A400B70493F6F60DA385D70423800704924677
:1005B400F3A606800100010093760502D5CEF3363A
:1005C400078093F6860836C4010001002380B7042F
:1005D4002380C70401000100B70614007D89558DEE
:1005E40088C7010001000100010023800704A2461E
:1005F400F3A606800100010073370780137787088C
:100604003AC6010001002380B7042380C704010017
:100614000100010001003727004093061005A303E1
:10062400D78023800704B247F3A7078001000100A5
:1006340093078008F3B7078093F787083ECE01003D
:100644000100B7170040130770052380E704130760
:1006540080FA2380E7040100010003C7B70413678D
:100664000708A385E70423800704F247F3A707805C
:10067400010001000561828093760504BDC6F3364E
:10068400078093F6860836C8010001002380B7046A
:100694002380C70401000100B706140093860604F2
:1006A4007D89558D88C70100010001000100238068
:1006B4000704C246F3A606800100010073370780D1
:1006C400137787083ACA010001002380B704238006
:1006D400C704010001003727004093062005A30347
:1006E400D78023800704D24781B7733707801377F5
:1006F40087083ACC010001002380B7042380C70493
:100704000100010098471367070C98C7238007046A
:10071400E24719BF0111814601468145114506CEC4
:10072400EF00D02093078008F3B7078093F787087A
:100734003EC601000100B71700401307700523806F
:10074400E704130780FA2380E7040100010003C7CC
:100754006704136717002383E70423800704B24761
:10076400F3A7078001000100F24005618280411176
:100774008146014681451145EF00501B130780084F
:10078400F337078093F787083EC401000100B717C9
:100794000040130670052380C704930680FA238063
:1007A400D70401000100FD552396B70223800704F6
:1007B400A245F3A505800100010073370780137774
:1007C40087083AC6010001002380C7042380D704A8
:1007D4000100010003C76704136717002383E704BC
:1007E40023800704B247F3A707800100010001A09A
:1007F400BD473305F50201007D1575FD8280411169
:1008040022C426C206C6AA84014463179400B240D7
:10081400224492444101828005041305803E42042F
:10082400C13F4180DDB700009305000273A04580FD
:1008340082457390153492402242B2424243D243DD
:100844006244F244025592552256B2564257D25748
:100854006258F25806499649264AB64A464BD64B40
:10086400664CF64C065D965D265EB65E465FD65FC8
:100874000961730020304111B7170040985F3AC6F0
:10088400945F3247E39CE6FE324541018280B7170C
:100894000040130700032388E702854723ACF1983F
:1008A40073002030411122C626C44AC2972000E0BA
:1008B400E780A01EC167E98F2A8493740540638F83
:1008C40007269377150099C703C5519B972000E02D
:1008D400E780C002B70704003377F4006309071008
:1008E40093876708E18F95CB83C7219B03C7119B2F
:1008F4009386219B63F2E70A03C706009307170058
:1009040093F7F70F2380F600938701ADBA9703C5D9
:100914000700972000E0E78060FE9DC037050010C7
:1009240013050540972000E0E78080188D47238653
:10093400F19A0545238B019A972000E0E780E0F5C2
:100944009377041099CF13050010972000E0E780F7
:1009540020160545972000E0E78020F4954723867C
:10096400F19A9377042091CB13050020972000E09F
:10097400E780001491472386F19A056513050580E5
:10098400B377A40063820722972000E0E780401237
:1009940099472386F19A09AC83C7419B89CB0545C6
:1009A400238B019A972000E0E78020EFBDB78547AD
:1009B400814513050040A389F19A972000E0E78060
:1009C40000F2814513050020972000E0E78020F124
:1009D400814513050010972000E0E78040F00545AD
:1009E400972000E0E78040E9238B019A3DB7937795
:1009F400240089CB83C7119BE1C30545972000E000
:100A0400E780C0EB937704049DCB03C9219B930734
:100A140019002389F19A972000E0E780C0EE9387BC
:100A240001ADCA972380A70003C7119B83C7219BED
:100A340063FDE7080545972000E0E78020E8E381AF
:100A440004F03705001013050540972000E0E78007
:100A5400200683C4219B938714002389F19A97204D
:100A640000E0E78040EA938701ADA6972380A700C2
:100A740083C7419BE39F07EA8547814513050040EF
:100A8400A389F19A972000E0E78060E5814513058A
:100A94000020972000E0E78080E4814513050010E2
:100AA400972000E0E780A0E30545972000E0E78079
:100AB400A0DC238B019A69B50145972000E0E7800B
:100AC400E0DF8547A386F19A35BF0145972000E012
:100AD400E780C0DE9387D19A03C7070021CFA3869E
:100AE400019A83C7419B89CB0545972000E0E780A5
:100AF400C0DA238B019AA1B78547814513050040CD
:100B0400A389F19A972000E0E78060DD8145130511
:100B14000020972000E0E78080DC81451305001069
:100B2400972000E0E780A0DB0545972000E0E78000
:100B3400A0D4C1B705472380E70011B793772500F8
:100B440095CBB707040093870708E98F1387619B48
:100B5400DDC391472300F7002388019AA387019AF4
:100B640083A7819A81CB9C4391C79385F19A13857E
:100B740001AB8297B7070400E18FE1C705459720D1
:100B840000E0E780A0D3B5CC37050010130505407D
:100B9400972000E0E780C0F10545972000E0E7805A
:100BA400E0D10144238B019A8567E18F89CB0565E8
:100BB400972000E0E780C0EF9D472386F19A916774
:100BC400E18F89CB1165972000E0E78060EEA147B3
:100BD4002386F19AA1677D8C09C82165972000E0DE
:100BE400E78000EDA5472386F19A3244A2441249D6
:100BF4004101730020308D472300F7002387019AB9
:100C040095BF93774408E38D07D283C7019B03C73D
:100C1400F19A9386019B1305F00F63FFE70003C766
:100C240006009307170093F7F70F2380F6009387C6
:100C340001ABBA9703C50700972000E0E78000CC1A
:100C440001B393770404A1C383C6E19AFD471387D4
:100C5400E19A014563E5D7028347070013F9F70FCB
:100C6400850793F7F70F2300F700972000E0E7804C
:100C740080C9938701A9CA972380A70005459720B7
:100C840000E0E780A0C3937704018DC73757004085
:100C94008357078093E717002310F78083A7819A6F
:100CA40081CBDC4391C783C5E19A138501A982975F
:100CB4002387019AE38604C837050010130505400D
:100CC400972000E0E780C0DE0545972000E0E7803C
:100CD400E0BEBDB1411122C426C21384719B06C675
:100CE400971000E0E780E07B834704000547938486
:100CF400A19B850793F7F70F2300F4006398E7009F
:100D0400971000E0E780C0702390A400834704009C
:100D14001307800CB3F7E70239472300F400B71731
:100D24000040238CE704971000E0E780207A839743
:100D34000400B24022443E959307A0413305F502D6
:100D440093070020924441013345F502FD779387D0
:100D5400273B3E9542054181828079714AD02A8998
:100D6400054506D626D222D4AE844ECE52CC973038
:100D740000E0E780A0F681570547854605469305C0
:100D8400710013054004A303F100973000E0E780ED
:100D940080FA0945AD3413074006854619462C00F0
:100DA40013054004973000E0E78040069947631438
:100DB400F51083578100171400001304A4731395CE
:100DC4008700A1835D8D4205418197F001E0E780B2
:100DD40020DF97170000938767719043D44397E00F
:100DE40001E0E780E0151040544097E001E0E7801F
:100DF40040BA97170000938767709043D44397E0F5
:100E040001E0E7808068970002E0E78040E28347E2
:100E1400C1000347B100AA89A207D98F139587009F
:100E2400A1835D8D4205418197F001E0E78040D9BF
:100E3400971700009387076D9043D44397E001E030
:100E4400E78000101040544097E001E0E78060B470
:100E5400971700009387876B9043D44397E001E092
:100E6400E780A062970002E0E78060DC171A0000C8
:100E7400032A8A6BD2852A8497F001E0E7804046F2
:100E84006349A00293050000228597F001E0E78002
:100E9400804E63540500130400002320390180C0F0
:100EA4000545B250225492540259F249624A4561AE
:100EB40082805284DDB70145EDB7097183D7A180E3
:100EC4002317F10008109717000083D7275E232EFD
:100ED40011162318F100232C8116232A9116232896
:100EE400211723190100231A010002CC02CE9730E6
:100EF40000E0E78020CC13056101973000E0E78033
:100F040040C681452810972000E0E780A039854538
:100F1400E80137490F00972000E0E780A0389304E8
:100F24004006973000E0E780A0B129441309092462
:100F34004A85973000E0E780E0B30C081305E10030
:100F4400973000E0E78040FD835501010355E1003F
:100F540039C47D14130621014204973000E0E78070
:100F640020B241800DE183552101300828109720DB
:100F740000E0E780C033835541017008E801972001
:100F840000E0E780C032FD14C5F48320C1170324B8
:100F9400811783244117032901171961828054089A
:100FA40013062101973000E0E78000B465BF01110A
:100FB4006C00280006CE22CC26CA4533AA84193BED
:100FC400FD779387C7632147AA97B3C7E7029306C0
:100FD400400617140000130464371307400693F700
:100FE400F70F63E3F6003E87A304E400ADC0224597
:100FF4009715000083A5455397F001E0E780204151
:10100400970002E0E780C0AA42054185A305A40039
:1010140021852306A40032459715000083A5C550F9
:1010240097F001E0E780A03E970002E0E78040AE41
:1010340093170501C1831375F50FA1832307A4003A
:10104400A307F4006244F240D2440561BDB5FD57E4
:10105400A304F400A305F4002306F4001305F00F21
:101064009307F00FE1BF411106C6EF00E077F5BF2B
:101074002303048015472303E48001002302A48092
:10108400828083076480E3CE07FE2303048082808A
:1010940083076480E3CE07FE034544808280830790
:1010A4006480E3CE07FE2302A4808280411126C41B
:1010B4004AC24EC006C61377F50BAD47AA892E89DE
:1010C40095446306F70019456537653F8D444E85A1
:1010D4004537FD59FD1463983401B240A2441249C6
:1010E400824941018280135509011375F50F453F6B
:1010F4002209CDB7011126CC06CEB704080051371A
:101104001545BD37713769372AC6A53F32459377F0
:10111400150089EB136515001375F50FF240E244D1
:1011240005618280FD14E9FC0145CDBF397126DCDF
:101134004ADA4ED852D656D45AD25ED006DE62CEA1
:1011440066CCB7E700E07D5783AA070022C603AA4E
:10115400470023A0E71823A2E718B7170040130796
:1011640070052380E704130780FA2380E70483C70C
:101174004704930B75FFB684E20793FBFB0F854688
:10118400AA892E8B328937240040E187015763FAFC
:1011940076016308D5008946130700026313D5005E
:1011A4000157D98F93F7F70FB71C00402382FC0433
:1011B40011472303E4801305F00F5D3D094CD1353D
:1011C400636D7C11B7050700DA95378707007955F9
:1011D40063F2E504B3879500636EF702370B0800EA
:1011E400A94733EB65016399F90689E48144513DCC
:1011F40026850DA0DA850945553D05090345F9FF06
:10120400FD14050B693D81C49377FB0FFDF7DD35B4
:1012140069FD7D55B7170040130770052380E70467
:10122400130780FA2380E70403C74704418B238212
:10123400E704F250B7E700E023A0571123A24711B7
:10124400E25432445259C259325AA25A125B825B56
:10125400724CE24C21618280A5476395F906856949
:101264001309F00FB3069900B3742B01B694134914
:10127400F9FFB3749900856B33796901416B9387E6
:10128400F9FFB3F7270199E363FC340193D94900CB
:10129400C147E3E637FF99BF0569C1697D19D9B72D
:1012A4001305800D638869011305000263847901C5
:1012B40013051008CA85DD3B353D21DD4E99B38405
:1012C4003441D9B7DA852D45D533CA94E30099F270
:1012D40005097D3BA30FA9FED5BF9387F9FF93F7BB
:1012E400F70F6361FC0C83C71C0413073008631FEA
:1012F400F70437070800636BEB04B3079B00B706DA
:10130400100063F5D704334BEB0089476393F90668
:101314008980D549E38C04ECDA850945413B110900
:101324000327C9FF91472320E48003076480E34E29
:1013340007FE23033481FD17EDFBFD14110B81C45B
:101344009377FB0FE9FF7D3371F5E1B5B7170040E3
:1013540003C75704B70708001377070219E3B787D1
:1013640007007955E378FBEA33079B00E3FFE7F8CE
:1013740055B58547E382F9F2DA852D45053B938916
:10138400F4FFE38504E6293393F7390091EB8326D0
:1013940004800327090093074900E39AE6E43E89A1
:1013A400CE84F1BFB5476396F9001305900BC9319C
:1013B40035BDB1471305B00AE38BF9FE9947639134
:1013C400F904B7050800B365BB002D45C531814458
:1013D4008D4BA149753963967401832704802320BA
:1013E400F9008504E39834FF8327048013172B0145
:1013F400635507002312F900D5BB2322F900FDB37E
:101404009D476399F90281451305B0044531BD44F4
:101414002320090023220900FD599D3993F7740004
:10142400CA9703C70700FD14398D2380A700E396EC
:1014340034FF6DBBA1476392F9046D398144630D98
:101444000B008D479304C0036308FB00930400055D
:1014540063048B01930440041375C507E30895D80E
:101464001945393139390545213126850D39094563
:101474003D314931E31C05D669BB91476399F900B5
:1014840013056006F536F53E130590090DB7E38F95
:1014940009D4F154A9BBB7C7004003A7C72023A6AA
:1014A40007200F10000001C599C1814711E6B7C795
:1014B400004023A6E7208280B386F50003C8060017
:1014C400B306F500850723800601E317F6FEC5B7CA
:1014D40037C700408327C720232607200F100000AA
:1014E40019C191C111E637C700402326F720828035
:1014F400910503A7C5FF11057D16232EE5FEDDB773
:1015040037C700408327C720232607200F10000079
:1015140001C53307C50011E637C700402326F7206D
:1015240082800505A30FB5FEE31DE5FEF5B7B7C739
:10153400004083A6C72023A607200F100000814780
:101544003307F5000307070019E737C700402326D0
:10155400D7203E8582808507E5B7011126CA4AC88F
:10156400B7C7004006CE22CC83A4C7202A892E8682
:1015740023A607200F100000131506019305F0049D
:10158400418132C6EF0090222A8401C53246CA85C1
:1015940019372285F2406244B7C7004023A697203A
:1015A4004249D24405618280B7C7004003A7C720DF
:1015B40023A607200F10000001C599C1814711EA35
:1015C400B7C7004023A6E720054582808507E309C5
:1015D400F6FE3308F500B386F5000348080083C619
:1015E4000600E305D8FEB7C7004023A6E72001455F
:1015F4008280B7C7004003A7C72023A607200F1087
:1016040000009307F6FFBE952A966317C500B7C777
:10161400004023A6E7208280FD1583C71500050539
:10162400A30FF5FEDDB737C700408327C720232665
:1016340007200F10000001C53307C50019E637C79E
:1016440000402326F7200145828005058346F5FFE7
:10165400E397B6FEE31BE5FE37C700402326F720D9
:10166400054582807971973700009387679C22D45F
:10167400804306D626D24AD04ECE52CC56CA5AC839
:101684005EC679C0B7C4C901014B9739000093897C
:10169400A9999384F437173A0000130AAA99973A40
:1016A4000000938A2A94173900001309299D83574F
:1016B400240095E35C44631D0B00173700002329C5
:1016C400F796832BC4002285EF00301D5E84B9A8F1
:1016D4002326FB00FDB783A7090082971C44330728
:1016E400F5406376F500032749001D8F2A9763E2CE
:1016F400E4089737000023AF078E83552400034581
:101704000400973000E0E78000305C405844A1CBEF
:101714000C4403264900AE97BE8663E4B70063E435
:10172400C700B386C74014C4228B3A8449F0973764
:1017340000009387278B9C4B05476372F706FD17C0
:10174400173700002328F78AB250225492540259C2
:10175400F249624AD24A424BB24B456182806317D6
:101764000B009737000023A5E78CA1BF2326EB00CD
:1017740089BF03274A0209CF63EFA7003385A74037
:1017840083A70A016376F5009737000023A4A78690
:10179400228B404461BF03274900BA97C5B79737E6
:1017A400000023A907844DB7973700009387878CDF
:1017B4009C4385C3411106C682979737000083C7AF
:1017C400878689E79737000023A6078AB24041013C
:1017D40082809737000083C7078591E79737000019
:1017E40023AA078882808280411122C41734000012
:1017F400130404821C4006C626C24AC091C78297BD
:101804009737000023A607805C4091C382971C4051
:10181400639C071C17370000034737A0954797348C
:1018240000009384249F6301F71C9737000083C74B
:10183400A7858DE383C75400858B89CF83C7740044
:101844001947631CF70E97370000A387079C992656
:101854005C4482971C4491C38297172900001309A2
:10186400E97C03270900172600000346B67797276B
:10187400000083C7277793961700BA9683D606008D
:10188400E9CA9727000083C7E77563EEC70C97275B
:101894000000238907741C406398071483C77400ED
:1018A40015476303F7149737000083C7379791CF21
:1018B40083C7740093F7F70F89EB97370000A38F62
:1018C4000794972001E0E7806084972700009387BE
:1018D400A7759C43638A0710972700009387077AAC
:1018E400DC43172700002327F770AD3B9727000040
:1018F40093874774DC53EDCB83C774001547636546
:10190400F70E9737000083C7A795918BF1EF9727C0
:10191400000083C74771E9EB0326090097260000FE
:1019240083C6566C63C8D70C2244B2409244024921
:101934004101173300E06700C36383C774001D4788
:10194400E31AF7F097370000A388078CA1241C48FA
:1019540009B7850793F7F70F972600002384F668E5
:10196400E3E7C7F039BF86073E9783550700231086
:101974000700972700002397076A9727000093879B
:10198400E7689C43172500000345C5651317250028
:10199400BA979C4382979727000083D7A768172795
:1019A40000000347276493C7F7FF7D8D9317170043
:1019B400032709003E97835707005D8D2310A70076
:1019C4009727000083C7076291C785071727000080
:1019D400230AF760172700000347C7609727000012
:1019E40083C75760E375F7EAB24022449244024940
:1019F40041018280139717003297035707006DF750
:101A040085070DB737C700408326C720B707FCFFFB
:101A1400FD17F58F2326F7200F10000097270000ED
:101A24009387475CC84F832787262326D7206A05D8
:101A340093C7F7FF99835D8D82800111973700006A
:101A44009387478D22CC03A4870B26CA06CE2AC4CB
:101A54002EC6854419E40145F2406244D24405612E
:101A640082808347910003471400858B6304F70049
:101A74000044CDB719469305A100130524002D3663
:101A8400E31895FE0545C9BF172700001307C7775C
:101A94001443411122C49C5E4AC006C6998326C2DF
:101AA400858B3A84172900001309C975D1CB930794
:101AB40000069CDE172700000347277693070008DB
:101AC4009724000093840475631BF700832709009F
:101AD4009C4393F70704172700002300F77483C778
:101AE400040093F707049DC3972700009387C75307
:101AF4009C4382979727000023A6A77283C70400FC
:101B040093F7F70B172700002306F77083C74400E9
:101B140093F7070495E7854717270000A30EF76E90
:101B2400972700009387C7709C433707020098C724
:101B3400130700FC972600002380E66ED844F8D3F0
:101B440018401C5F9183858B8DC31C5F93E707014D
:101B54001CDF972700009387A76D9C4323A20706E9
:101B64008547172700002309F76A83270900D8430C
:101B74000583058B19C7D843759BD8C3D843799B74
:101B8400D8C3B24022449244024941018280ED3DCF
:101B94007300203097270000938787699443972721
:101BA40000009387276703C70700058B11CB97278E
:101BB40000002383076697270000A38F07648280B1
:101BC40003C71700058B65F7F85271FF83C75700E9
:101BD400DDB71727000013072763032807008327AF
:101BE40088039583858BADEF11C683270803BD83D6
:101BF4002300F6009DC61C43985B46079357670174
:101C04006356070093E707C0C207C1830397060022
:101C1400C207C18709C7BA970947B3C7E702239028
:101C2400F6008DCD8345150095C99727000083C71D
:101C3400C75E93F7070413879500894585C33A95D2
:101C4400834705000547994593F6F7066398E60030
:101C5400E207E187814563D30700B9452E85828079
:101C64008545EDBF411122C406C6172400001304A4
:101C7400245C184049E9AE877453FDFE3E85B28565
:101C84009727000023890758971001E0E780E02E8A
:101C940097270000938747579C43B70680009843D3
:101CA400558F98C3D857719BD8D797270000A38521
:101CB400075697270000A38F07541C40094798C371
:101CC400B7F700E003A707D16D9B23A8E7D003A7CC
:101CD40007D15D9B23A8E7D0730050101440172749
:101CE40000001307275383472700858B89EB83471D
:101CF4003700858BC1C397270000238F0750B2405C
:101D04002244410182808D476310F5029727000029
:101D14009387874F9C43B70680009843558F98C399
:101D2400D857719BD8D75DBF8547E319F5FA544757
:101D34008177FD17F58F5CC70F1000001840B707B7
:101D440002001CC7930700F8172600002306F64C70
:101D5400972700009387474B9C439C439D83858B27
:101D64006397A700930760197CD354C785BF930773
:101D7400E01BDDBFFC52A5FB59B7411122C4172457
:101D840000001304E44A1C4006C6D8479316D70043
:101D940063D6060298479316D70063D106027D578F
:101DA400B8D7172700001307E723584F05079726CE
:101DB400000023A7E6243707040098C798470D833B
:101DC400058B1DC3172700000347E744136717005B
:101DD400972600002381E644130700F897260000A5
:101DE400238CE642214798C79847058B09CF1727CC
:101DF4000000034737421367170097260000A38BA0
:101E0400E640054798C798470983058B09E7984733
:101E14000583058B31C317270000A30F073E98479E
:101E2400972600009386063F0983058B63020710FB
:101E340003C706001367170097260000238CE63CAF
:101E4400114798C7172700001307073C1443D856B7
:101E5400719B13671700D8D698479316F70063D67B
:101E640006029726000083C62652C18A172700005F
:101E74001307474AE1CA0347470713670702972630
:101E840000002383E650416798C798479316E700FC
:101E940063D20602172700000347073862076187E9
:101EA400635707000547972600002387E636370760
:101EB400020098C798479316C70063D7060297266F
:101EC400000083C6764C858A1727000013078744D1
:101ED400C1CA034757071367270097260000A38545
:101EE400E64A3707080098C798479316B70063DD9A
:101EF40006023707100098C79727000083C7C71842
:101F040085C717270000034757319547630EF7002D
:101F1400972700009387872E9C4391C3829718408C
:101F2400B7071F00BD075CC7B2402244410182804D
:101F340003C736001367170097260000A38DE62C0D
:101F4400094701B7834647070946BD8A6388C60027
:101F5400034747078D463D8BE317D7F2114705B773
:101F640083465707918AB5DE0347570713678700EF
:101F7400ADB7972700009387A72B9843896793876A
:101F840007F47CD3972700009387C72F9C4383A62D
:101F94000709139656006358060083A6070913968B
:101FA4006600634406007453FDF28280411122C42A
:101FB400B7C7004006C603A4C72023A607200F10F6
:101FC400000011C199E5B7C7004023A68720014549
:101FD4007DA893073500C207C183F19BC207C18363
:101FE400130740036369F7021727000013074732FA
:101FF4000843172700001307273114436392A602EE
:102004001727000013070703185B55DFC207DD8D90
:10201400054502974DBF172700001307272FC9BF97
:10202400035765002DEB035745006366F706B306B7
:10203400F7402146637CD602032805009386870077
:102044001D8FAA96611717260000035606FA2392DD
:10205400E60023A006012393060014C12312F50011
:10206400130786FF972600002391E6F82313B50093
:102074009725000083D565F7B387F540172700003F
:102084002315F7F6B7C7004023A687202105B240E1
:10209400224441018280084195B7B7C7004003A894
:1020A400C72023A607200F10000001E523A607215F
:1020B4008280972700009387A72503AE0700972700
:1020C40000009387672403A307008146F28763F027
:1020D400670C83A80700636FF50A63EDA80A1387EA
:1020E40087006366E50A03D667002167050763175F
:1020F400E60003C701A305072388E1A29725000092
:10210400938545EE03D6470003D765002393070064
:10211400329742074183172500002318E5EC638AB0
:10212400C703172500001305651E08416303F50264
:1021340003D5660019ED83D7460023A016012107B5
:102144003E9621062392C60097270000239FE7E8C6
:10215400B6879843630D6702972600009386061B93
:1021640094426306D7028356670095E283D64700FC
:10217400035647001843A106B2962392D70098C38A
:1021840083D76500A107172700002310F7E6B7C718
:10219400004029BFBE86C6871DBF011197270000D6
:1021A4009387471722CC03A4070C26CA4AC84EC6F5
:1021B40006CEAA8413092500854915C083C71400D7
:1021C40003473400858B6304F700405CFDB7194670
:1021D400930544004A85EFF02FBDE31835FF2285AF
:1021E400F2406244D2444249B249056182804111BD
:1021F400972700009387071222C403A4070C26C262
:102204004AC006C693042500054901E82285B24068
:1022140022449244024941018280A6851305A40206
:1022240097C001E0E780C0EEE30225FF405CF1BF08
:102234004111972700009387E70D22C403A4070CDC
:1022440026C24AC006C693042500054901E8228532
:10225400B24022449244024941018280A68513057A
:10226400A40197C001E0E780A0EAE30225FF405CF7
:10227400F1BF0000197106C212C416C61AC81ECADC
:1022840022CC26CE2AD02ED232D436D63AD83EDA32
:1022940042DC46DECAC0CEC2D2C4D6C6DAC8DECA62
:1022A400E2CCE6CEEAD0EED2F2D4F6D6FAD8FEDA12
:1022B400938501998841E700050092402242B24289
:1022C4004243D2436244F244025592552256B256D6
:1022D4004257D2576258F25806499649264AB64A96
:1022E400464BD64B664CF64C065D965D265EB65E56
:1022F400465FD65F0961730020300000EFF0CFCA5B
:102304007300000000000000972200009382A2D115
:102314000383020023800200630F0300F3251034BB
:102324002EC0970500009385A5FD73901534EFF03A
:10233400DFA47300203086DCEFF03FA4E6508280F7
:042344000000000095
:102348009711002093818195174100201301014BBB
:102358001305400097E5FF1F938545CA170600201F
:10236800130606FE63FAC5008322050023A0550064
:1023780011059105E3EAC5FE17F501001305051BD4
:1023880097050020938505FC1386C19863FAC5005C
:102398008322050023A0550011059105E3EAC5FE37
:1023A80013850199972500209385C5086377B500A3
:1023B800232005001105E36DB5FEFD42739002BCB4
:1023C8008D4273904280930280087390023097E2A6
:1023D800FF1F9382A2C293E2320073905230972279
:1023E8000000938202CC73901234730020302A8349
:1023F80009CA83830500230073007D16050385053C
:102408006DFA8280B717004083C5870503C8970512
:1024180003C7970593F5F50F1378F80F136787002F
:10242800A38CE70403C797051377B70FA38CE704BA
:1024380003C7A70513671700238DE7043717004064
:102448008347A705858BEDFF0565C1463717004013
:102458009308F5FF0346A70513661600230DC70466
:102468000346A705058A6DFE0356C705FD16C20675
:102478001346F6FF33761601C182B297E1FEA10733
:102488009183130505801D8DA30C07054205230CB8
:10249800B70441858280B717004003C777051377D3
:1024A800E70FA38BE7043947238CE7040D47A38C78
:1024B800E70403C7A7051377D70F238DE7048280A6
:1024C800371700408347A70593E71700230DF70444
:1024D8008347A705858BEDFF0355C7055205518135
:1024E8008280B717004003C7E7040D8941111377AD
:1024F800C70F498F93068008F3B6068093F68608BF
:1025080036C601000100930670052380D7049306A0
:1025180080FA2380D704010001002387E704238081
:102528000704B247F3A70780010001004101828038
:1025380041112A830148930E407E130F0019930F0F
:1025480040069318030193D8080163EF1E01130393
:102558000019337365028542FD4363F0B20A8D4F5B
:10256800214F930E400689A87D13336EE303930829
:10257800E016630E0E00336EF3039308D01663085B
:102588000E009378330093B818009388D816C29831
:1025980013980801135808016DB793F81500138EA6
:1025A800F5FF6371BF04F908C298139808019315E1
:1025B8000E0113580801C181E391F5FF8545630BAE
:1025C8000300B378D5038145638608009375350009
:1025D80093B51500F105C295139805011358080124
:1025E8008945D9BFB3881341C29813980801931538
:1025F8000E0113580801C1818DB77D1632987946AE
:102608003307C70213D61700BE074208135808013C
:1026180032976146B3F6C60213068070B386C602C7
:102628003697A166F58F4207D98FB716004003C7C2
:10263800F60213770708A303E1000346710003C7F6
:10264800F60213770708E314E6FE03477100B7168E
:1026580000405DCF1307800873370780137787081A
:102668003AC40100010037170040930670052300A3
:10267800D704930680FA2300D70401000100232A17
:1026880007038346170393E60608A308D702230027
:1026980007042247732707800100010011663717D6
:1026A80000407D16545B4C5FAD8EF18EE5FE9306BF
:1026B8008008F3B6068093F6860836C60100010046
:1026C800930670052300D704930680FA2300D704E5
:1026D800010001005CDB8347170393E70704A308A5
:1026E800F70223000704B247F3A70780010001009F
:1026F8004101828003C7F60213770708A303E100AC
:102708000346710003C7F60213770708E314E6FED1
:102718000347710065D33DBF4111B7170040985F6B
:102728003AC6945F3247E39CE6FE32454101828017
:10273800914763EAB70897E701009387E76C8A0532
:10274800BE9598413E97B71700409387470B02877D
:1027580094431345F5FF37170040E98E94C3930659
:10276800070B9C42E98F9CC29307070A9843798D0F
:1027780088C3828090439346F5FF37170040758ED3
:1027880090C31306070B1C42C98F1CC29307070A84
:102798009843F98E94C38280944337170040C98EBA
:1027A80094C39306070B9C421345F5FF65BF9443FA
:1027B8001347F5FF758F98C3B71700409387070A2B
:1027C8009843498F98C382809843498FEDB79147C2
:1027D80063EAB70897E70100938747648A05BE95BF
:1027E80098413E97B71700409387470D0287944357
:1027F8001345F5FF37170040E98E94C39306070D7C
:102808009C42E98F9CC29307070C9843798D88C333
:10281800828090439346F5FF37170040758E90C32A
:102828001306070D1C42C98F1CC29307070C984357
:10283800F98E94C38280944337170040C98E94C39D
:102848009306070D9C421345F5FF65BF9443134754
:10285800F5FF758F98C3B71700409387070C984307
:10286800498F98C382809843498FEDB73757004006
:102878008357078011C593E707102310F7808280DC
:10288800C207C18393F7F7EFC207C183FDB7375774
:1028980000408357078011C593E707202310F7806E
:1028A8008280C207C18393F7F7DFC207C183FDB7F0
:1028B800375700408357078011C593E70740231017
:1028C800F7808280C207C18393F7F7BFC207C1832D
:1028D800FDB737570040835747804205418189C576
:1028E800C98F2312F78082801345F5FFE98FD5BF82
:1028F800B75700402398A7808280B757004003D578
:1029080007811375F50F828037570040835707807A
:1029180011C5A166D58F2310F7808280C607C583AD
:10292800DDBF011126CAB754004052C43E8A83D77E
:1029380004804EC6BA892167D98F06CE22CC4AC8F0
:1029480056C25AC02390F4802A8901452E84328BBE
:10295800B68A5D3F492437480F00130808243358C6
:10296800050383D74480C207C18393F707FCC207D6
:10297800C1832392F48083D74480B3E70701C20759
:10298800C1832392F48083D70480C207C183F99B53
:10299800C207C1832390F480E1679387076A63E4E1
:1029A800870A06043354850285671387C7FF1146D3
:1029B80042044180618F01C7FD173376F400050892
:1029C8009307F00363F407011308F0034208B757AD
:1029D80000401358080123900783B7550040239EF1
:1029E800C58083D70580F240624493E7170023909F
:1029F800F58083D70580D244024BC207C18393F781
:102A080057BFC207C1832390F58003D5058033657E
:102A1800550133652501420541812390A58083D75F
:102A280085802394058083D685804249924AB3E7FE
:102A3800460133E73701420741832394E580B249D1
:102A4800224A05618280631A0B028D45B305B402E0
:102A5800B355B502D205D1812E8691E105464206CD
:102A68004182A1675D8E9307C0123308F80293076D
:102A7800803E3358F802050891BFE5473304F40255
:102A8800916733568502520651825D8ED9BFB7577A
:102A9800004003D7478103D587814205598D220518
:102AA800218182801345F5FF42054181B7570040D7
:102AB800239AA7808280797122D43714004026D2C5
:102AC8004AD0035924028354040206D64209C20498
:102AD8004ECE52CC56CA13590901C1802DE1137943
:102AE800F9F793F4F49F4209C20413590901C1800C
:102AF80093078008F3B7078093F787083EC401005F
:102B08000100930770052300F404930780FA23005B
:102B1800F40401000100231124032310940223006C
:102B28000404A247F3A7078001000100B250225411
:102B380092540259F249624AD24A45618280B7F5F5
:102B4800070081463000B105194597E0FF1FE7806F
:102B5800A05D22478967F98FF1FB1369090893E49F
:102B6800044093098008F3B7098093F787083EC0AB
:102B780001000100930A700523005405130A80FA26
:102B880023004405010001002311240323109402AB
:102B9800230004048247F3A70780010001002945A8
:102BA80097E0FF1FE78080C4F3B9098093F989088B
:102BB8004EC2010001002300540523004405010012
:102BC80001008357040293E707202310F40223002F
:102BD8000404924781BFB71700409847931707012D
:102BE80013770704C18309EBFD8B3755E8011305FB
:102BF80005803345F502828013F7070C930600041D
:102C08006316D700FD8B37459C1CD5B72165130586
:102C180005D0828037E700E01C435443A183E206D5
:102C2800D58F1CC1FD572320F7182322F71882805F
:102C380013178500B7E700E023A0E710618123A2FE
:102C4800A7108280B7F700E08847CC4782804111FF
:102C58009397050122C406C626C2C1872E8463DE67
:102C68000700EF10701C19C1EF10B0102165218DFD
:102C7800B240224492444101828093F7150013C563
:102C88001500FDF7916433F595007DD113060064B6
:102C9800916503C54199EF10506D258C13150401FA
:102CA8004181F9B71D71494697E50100938545189B
:102CB80017E501001305C53686CEA2CC97F0FF1F95
:102CC800E780408E11E101A037F700E0795610CB7C
:102CD800FD5654CBB7E700E0056423A087109306A0
:102CE800F00214C323A087180100010017F7FF1F83
:102CF8001307476123A8E1984157A38AE7401306C1
:102D0800C0038145480897E0FF1FE780207F9707A9
:102D180000209387A7A73ECA896793870780231C4B
:102D2800F100ED472312F1029547A301F10285470F
:102D38002303F102930754D12314F102B7F50700D6
:102D480097070000938747F03EDA8146970700000F
:102D5800938727167000E10519453EDC97E0FF1FB1
:102D6800E780803CB2473ED6835701012318F10221
:102D7800D24789C78357810163F3870001A04808B8
:102D8800EF20E04C11C101A0F64066442561828025
:102D98004111170500001305C5EB06C6EF20604773
:102DA800238AA198B120B240410171A24111930731
:102DB8008008F3B7078093F787083EC60100010033
:102DC800B7170040130770052380E704130780FA3C
:102DD8002380E70401000100C8DB23800704B24711
:102DE800F3A707800100010023AC0198410182800C
:102DF800797106D613078008F337078093F7870899
:102E08003EC401000100B7170040930570052380F8
:102E1800B704130680FA2380C7040100010083C6A3
:102E2800F70293F6D60FA387D70223800704A2469A
:102E3800F3A606800100010073370780137787081F
:102E48003AC6010001002380B7042380C7040100AB
:102E5800010003C7F70213675700A387E70223801F
:102E68000704B247F3A70780010001008147014723
:102E78008146054685451305407EEFF06FEB08084F
:102E88004146814597E0FF1FE7804067B707C0A824
:102E98003ECAB78732003ECC080897E7FF1F9387E2
:102EA800479D3EC8EF206068B2504561828001119D
:102EB80022CC06CE930740031304C5FC63E7A700A2
:102EC8003704C0A81304C4FC2A946800A133A930AD
:102ED800B307A4406376A400B707C0A8A297898F58
:102EE8003747F6A69387F7FD1307F7C5637AF70008
:102EF80032450944353BF2402285624405618280AF
:102F080022856D3532452D3303A481991DE0116565
:102F1800690597D0FF1FE780A02D0545EFF06FDC0E
:102F2800EFF08FFF2AC4EFF02FFFA247E30DF5FE65
:102F3800D9B70D44C9B7411113078008F337078083
:102F480093F787083EC401000100B71700409305B6
:102F580070052380B704130680FA2380C704010094
:102F6800010083C6E70093E686002387D700238005
:102F78000704A246F3A60680010001007337078004
:102F8800137787083AC6010001002380B70423801D
:102F9800C7040100010003C7170313670702A388CA
:102FA800E70223800704B247F3A707800100010066
:102FB800B7E700E03707001023A0E710410182803F
:102FC8008347150003470500A207D98F139587008B
:102FD800A1835D8D420541818280011126CA52C4B8
:102FE8004441032AC50206CE9307000022CC4AC8F2
:102FF8004EC656C23CC17CC12A84230E0502232436
:10300800450597F5FF1F83A5E5512685EFC0117883
:1030180097F5FF1F83A545512A89EFD0813E4C5073
:10302800AA894A85EFC01140AA854E85EFC011765E
:1030380068C497F5FF1F83A5654F4A85EFD0613CAB
:103048000C54AA894A85EFC0F13DAA854E85EFC088
:10305800F17328C897F5FF1F83A5054D2685EFD086
:10306800413A2A8997F5FF1F83A5854C2685EFC02D
:10307800713B18408547AA89631EF70A97F5FF1F19
:1030880083A5454B2685EFC0F139AA854A85EFC04F
:10309800F16F97F5FF1F83A565492A892685EFD02B
:1030A8004136AA8A97F5FF1F83A505492685EFC0F3
:1030B8007137AA855685EFC0716D97F6FF1F83A6F5
:1030C800E64417F7FF1F0327A74497F7FF1F83A7B7
:1030D80067441306000070CC30D070D030D470D460
:1030E80070DC2320D4082322E4082324F408232AAC
:1030F800240528CC232C4407CE852685EFC01169EA
:103108002326A40897F5FF1F83A545432685EFC00E
:103118007131AA852685EFC07167F2402328A4087B
:10312800230A04086244D2444249B249224A924AD4
:1031380005618280AA854A85EFC0516597F5FF1F12
:1031480083A5C53E2A892685EFD0A12BAA8A97F5A3
:10315800FF1F83A5653E2685EFC0D12CAA8556851D
:10316800EFC0D16297F6FF1F83A6063B17F7FF1F34
:103178000327C73A97F7FF1F83A7873A99BF4111DB
:1031880022C42A842E856C5806C6EFD021552C58A7
:10319800EFD0212797F5FF1F83A5853A2A84EFD022
:1031A800C11C6342050497F5FF1F83A5A539228535
:1031B800EFD04112AA87130500006342F00222856E
:1031C800EF00B07197F5FF1F83A5C534EFC09125B7
:1031D800AA8517F5FF1F0325E533EFC0315BB24021
:1031E80022444101828017F5FF1F0325A532C5BF80
:1031F8001307000018D958D918DDC5B3854763856A
:10320800F506956717F3FF1F03238331938707E2BA
:1032180097F8FF1F83A8483417F8FF1F03280834BE
:1032280097F6FF1F83A6C63317F7FF1F03278733B9
:103238005CC597F7FF1F83A727331CD197F7FF1F9C
:1032480083A7C7325CD11CD597F7FF1F83A7872FA9
:103258000CC150C12324650023281501232A050128
:1032680014CD58CD5CD569B7896717F3FF1F0323C1
:10327800632A9387077197F8FF1F83A8E82C17F82C
:10328800FF1F0328A82C97F6FF1F83A6662C17F7A5
:10329800FF1F0327272C69BF17F6FF1F0326862762
:1032A800B1BF5D71CAC003290503A2C4A6C22A849E
:1032B800AE844A8597F5FF1F83A5052C6AD086C67C
:1032C8004EDE52DC56DA5AD85ED662D466D26ECE5C
:1032D800328DEFD081096341A0044840CA85EFC010
:1032E800711408D8085C97F5FF1F83A5A528EFC0BF
:1032F8007113EFD0217BB64026442320AD009644BD
:103308000649F259625AD25A425BB25B225C925C1D
:10331800025DF24D61618280C1671387F4FF938774
:1033280067DE63E2E7024844930715006358950097
:10333800A167FD17AA9763D3F400A6873385A74032
:10334800EFD0710148D81C4095E348586C5CB7042D
:103358000080EFD0A138A98C285C97F5FF1F83A5C2
:103368002522EFC0310CAA85268505A00347C40392
:103378006304072805474858E39AE7FC6C5CEFD0DC
:10338800E13597F5FF1F83A5651FEFC031400C504D
:10339800EFD02107832544082A89EFD021348325DB
:1033A8000408EFD0010697F5FF1F83A56519AA89C0
:1033B800EFC0B17B634D052297F5FF1F83A58518E4
:1033C8004E85EFC0317193040000634CA006A685BA
:1033D8004A85032A8400832A8408EFC0B16F634EAC
:1033E800051C97F4FF1F83A4E412A6855685EFC039
:1033F80091686311051AD2852685EFD0212E97F59D
:10340800FF1F83A52518EFC0D17FAA844E85EF0042
:10341800D04CAA8997F5FF1F83A545122685EFC0D2
:1034280071002A8997F5FF1F83A5C50E4E85EFC049
:10343800617FAA854A85EFC07135A685EFD0012A3C
:10344800AA848347440904DC91EB8547232C94081C
:10345800232E94082320940A230AF4088329C408F5
:1034680017F5FF1F0325050BCE85EFD021278325F0
:103478008409EFC011792A89A6854E85EFC0717835
:10348800AA854A85EFC0017A032A04092A89232CD0
:10349800A408D28517F5FF1F0325C507EFD001241F
:1034A8008325C409EFC0F175AA89A6855285EFC0A6
:1034B8005175AA854E85EFC0E176AA85232EA4080A
:1034C8004A85EFD0A121930500002A89EFC0F16950
:1034D80063560500B707008033C9270197F5FF1F1A
:1034E80083A5050B4A85EFC0D171EF00103F5C4002
:1034F80097F5FF1F83A5050A3EC2EFC0917097F5A7
:10350800FF1F83A5E502EFC0E1719245EFC081710D
:10351800AA851245EFC09127AA89AA8517F5FF1F2A
:10352800032545FFEFD0811B8325040AEFC0716D89
:10353800A6852A8A4E85EFC0D16CAA855285EFC030
:10354800616E97F9FF1F83A9E9022320A40ACE859B
:10355800AA84EFC0916163530500CE848329440394
:1035680004DC930500004E85EFC0D156E35CA0D67D
:103578008347C403C1E78547230EF4022322340599
:10358800130500006C4028C0EFC0C1693C4468DCEA
:103598003CDC89BB97F5FF1F83A505FF5285EFC06B
:1035A8005166AA8517F5FF1F032545F9EFD00113CA
:1035B80097F5FF1F83A585FDB9B54E85EF00F0315E
:1035C80097F5FF1F83A505F5EFC0C165AA8517F517
:1035D800FF1F0325A5F6EFC0711BAA84D685528567
:1035E800EFC0D11AAA852685EFC0B16191BD97F4C5
:1035F800FF1F83A4A4F4B1B50444A1B5032A0404AD
:1036080097F5FF1F83A5C5F15285EFC0B14C635BE9
:10361800050097F5FF1F83A525F85285EFC0F154E3
:10362800634AA0006840D285EFC0C15F93070000DD
:1036380068C03CC06C404E85EFD0410A92452AC60E
:1036480017F5FF1F032585F5EFD041096C50AA89AE
:103658002EC4EFC031486357A000A2451245EFC001
:10366800615C68D02C544E852EC4EFC0B1466357B8
:10367800A000A2451245EFC0E15A28D45C48032CAB
:10368800440697FCFF1F83ACACF17CD8E285232865
:1036980094072285ED348329C4042A8B6848CE8593
:1036A800EFD0C103DA85EFC0D155CE85EFC0815781
:1036B800832BC401AA8917F5FF1F0325A5EEDE8514
:1036C800EFD0C1013C54AA8A2285BE853EC4453C40
:1036D80017F9FF1F032949EDAA85232824075685D2
:1036E800EFC03152DE85EFC0E153A68568D8228548
:1036F8007934AA852A8A4E85EFC0B150184CE285E4
:1037080068CC78D823289407AA8922858D3C832DF4
:103718000405AA8C284CEE85EFC0517CDA852A8CEA
:103728006685EFC0B17BAA856285EFC0914DEE85B5
:10373800EFC0414FA2452A8B22859134AA852328C0
:1037480024075685EFC0F14BDE85EFC0A14DA68555
:1037580068D822852D34AA855A85EFC0914A28D089
:10376800D285AA8A17F5FF1F0325C5DAEFC011779E
:1037780097F5FF1F83A585E3EFC0B14897F5FF1FB5
:1037880083A505E3EFC09175AA84124597F5FF1F3D
:1037980083A545E2EFC0817FAA852685EFC07146E3
:1037A8006C54EFC0214893050000AA84EFC0F13B98
:1037B8006354050093040000084864D4A685EFC04C
:1037C800D13A63550500930700003CD4032B040449
:1037D8003245DA85EFC0917097F5FF1F83A5C5DDE7
:1037E800EFC0314293050000032A8404AA84EFC085
:1037F800D137635A050AA6855285EFC0316E97F511
:10380800FF1F83A5A5DB2A89EFC0D12C6352A00A2C
:1038180097F7FF1F938787DA8C434A85EFC00177B4
:10382800AA85EFC0113E2A89D68517F5FF1F032503
:10383800E5CFEFC0B16ACA85EFC0B13CEF005010C8
:10384800AA8B97F5FF1F83A565CE4A85EFC0713B0C
:10385800AA855285EFC08173D285EFC0913A2A8A32
:10386800D6852685EFC0F139CA85EFC02172A685B5
:10387800EFC03139AA855285EFC0C13AEF00500C2C
:10388800AA855E85EFC0F13728C4CE852685EFC0AE
:10389800513797F5FF1F83A5A5D2EFC09136DA857A
:1038A800EFC04138C5B1D2852685EFC0A13781BFA9
:1038B80017F9FF1F032909C685BF2A860147130583
:1038C800F00F93170701C18363E3B7008280B30742
:1038D800E60083C707003D8DA1471318850193169D
:1038E80015001358884113F5F60F6356080093C660
:1038F800160313F5F60FFD1793F7F70FF9FF0507F2
:10390800C9B7411122C406C63284453FB240018D71
:1039180022443335A00041018280B307B500135714
:1039280086002380E70093871500C207C1833E9570
:1039380089052300C50013950501418182802E95D4
:1039480085052300C5001395050141818280411139
:1039580022C426C206C6B307B500135786002380C3
:10396800E70093871500C207C183AA972380C70081
:1039780093872500C207C183B304F500F9172E8485
:103988003E9589451D3F2380A400B24013053400AD
:10399800224442059244418141018280411106C678
:1039A8004528B24041018280011126CA4AC806CE84
:1039B80022CC4EC652C456C293741600114991ECDB
:1039C800135416008D473304F4022E8A81494204A9
:1039D800418022868D202A8929C9F2406244D24436
:1039E800B249224A924A4A85424905618280B30A0D
:1039F8003A0103C62A0089455685213715E983C649
:103A08000A0033079A00938714002300D70003C7DE
:103A18001A00C207C18389048D09C204D297C2095A
:103A2800C1802380E70093D90901E3E289FC75B7D7
:103A38002A8965B7828041111307400685461376A7
:103A4800F60F06C6752EB240620561854101828077
:103A58004111054785461376F60F06C6F924B2408C
:103A680062056185410182804205418117D3FF1FAC
:103A78006700C3D7011126CAB284096622CC4AC896
:103A88002E842A89130626618145280006CE7135C1
:103A9800AA854A862800653DAA8522862800453DD4
:103AA8002A862C0013059005D53D2A840DE1316541
:103AB80013050535553F09462C0013059005ED35CE
:103AC8002A8411E52800EFF0AFCF2390A400F2403C
:103AD80022856244D24442490561828079714AD084
:103AE8003289096622D44ECE2E84AA89130696619D
:103AF8008145280006D626D2B6840535AA854E8685
:103B08002800B135AA852286280091352A862C00FE
:103B18001305900561352A841DE5316513050535C2
:103B2800A13711462C0013059005BD3D2A8401EDEF
:103B38002800EFF0EFC82310A9001305A100EFF04B
:103B48002FC82390A400B2502285225492540259BF
:103B5800F2494561828001110D6626CA1306E68086
:103B68008145AA84680006CE22CC453B2A866C0093
:103B78001305900525352A8415E137E5040013055A
:103B88000520DD3509466C0013059005313D2A8472
:103B980011E56800EFF0CFC22390A400F24022851F
:103BA8006244D2440561828001110D6626CA13065B
:103BB80026688145AA84480006CE22CCB93B2A86CD
:103BC8004C0013059005D93B2A841DE91305803E56
:103BD800613D19464C0013059005F9332A840DE11F
:103BE8004800EFF0EFBD2390A40013056100EFF04B
:103BF8002FBD2391A4002800EFF08FBC2392A400CE
:103C0800F24022856244D24405618280011126CAAD
:103C18004AC81306D00F2A89AE841385019A8145B4
:103C280006CE22CC4EC6213B9389C1992A8603C56C
:103C380009009385019A9D332A840DE909651305C6
:103C480005711D3503C5090011469385019AA93BE5
:103C58002A8409ED1385019AEFF08FB62310A90085
:103C68001385219AEFF0CFB52390A400F240228566
:103C78006244D2444249B24905618280011122CC92
:103C880026CA2E84AA849305E100680006CEBD3FAB
:103C98001DE98357C100156713073757B387E70234
:103CA800557713078703B587BA979CC08357E100F8
:103CB8001167130797D0B387E7027D771307078942
:103CC800B587BA971CC0F2406244D244056182802D
:103CD800238B019A0547238AE19AA389019AB7257C
:103CE80006004111AA871167930600401166938563
:103CF80005A8014506C6EFE0DFC28545130500406B
:103D0800EFE03FBD854513050020EFE09FBC8545EA
:103D180013050010EFE0FFBBB240B7E700E037073C
:103D2800004023A0E71041018280011126CA06CE77
:103D3800B68422CC4AC84EC69306000263E0C60C7D
:103D480083C6619B2A841389619B795599E209EAA4
:103D58000145F2406244D2444249B2490561828039
:103D680089462300D900238AE19A2386019A13857C
:103D780001ADA388C19A2389019AEFE04FE7A38A8E
:103D8800019A83C7519B0604C18F0145A38AF19A02
:103D9800EFE0FFAF03C7319B85479389519B631BB6
:103DA800F704A389019A3754004003C50900EFE0DE
:103DB8003FB483570480918BEDFB85451305004084
:103DC800EFE03FB1854513050020EFE09FB0854542
:103DD80013050010EFE0FFAF91C4894703470900BE
:103DE800E30EF7FE83C7C19AA5D703C5C19A330569
:103DF800A04085B70545EFE07FA7F9BF7D5591BF86
:103E08009307000263E1C710011152C406CE22CC09
:103E180026CA4AC84EC656C25AC083C7619B2A885A
:103E2800138A619B7955CDEF3284014555CA854A7D
:103E380023005A01238AD19A2386019A2389019A59
:103E48001389519B9307F6FF23005901BA84A3886D
:103E5800F19A834709000608AE89B3E7070193F78B
:103E6800F70F2300F900EFE09FA283C7319B63930C
:103E78005709A389019AB75A004003450900EFE0A2
:103E88003FA783D70A80918BEDFB8545130500403A
:103E9800EFE03FA4854513050020EFE09FA385458B
:103EA80013050010EFE0FFA20149854A7D5B8347B7
:103EB8000A00639C5701054597D0FF1FE780E093F0
:103EC8000509E38664FFE34499FE83C7219B63E702
:103ED80087022286938501AD4E85EFE04FD122857A
:103EE800F2406244D2444249B249224A924A024BC1
:103EF800056182800545EFE07F977DB703C4219B6C
:103F08001374F40FF9B77D5582808280011122CC99
:103F180026CA930700002A84AE8468002C0006CEC7
:103F28003EC43EC6A13B05C183D7A1802310F4003F
:103F380017E5FF1F03550557F24062442390A4007C
:103F4800D24405618280224597E5FF1F83A58567D6
:103F5800EFC0214B97E5FF1F83A5855CEFC00103E8
:103F6800EFC0513A2310A400324597E5FF1F83A5FF
:103F7800A560EFB0314B97E5FF1F83A5A564EFC09F
:103F8800414897E5FF1F83A52564EFC02100EFC0D6
:103F98007137420541814DB741119397050122C4FC
:103FA80006C6C1872E8463DD070003C5819BAD2D3E
:103FB80011C1C1232165218DB24022444101828073
:103FC80093F7150091CB17E5FF1F1305254DEF302B
:103FD800215813451400CDB713F5250071DD21666E
:103FE800130606D0894503C5819BEF00103897D08A
:103FF800FF1FE78080FB97E6FF1F9386A6344146A4
:1040080085450145EF40104B1345240075B7011154
:1040180017050000130585F806CE22CC26CAEF1036
:10402800401F9384819B85472380A4002307F100C8
:104038001306E1008D47854513055030A307F100AD
:10404800EF50611E1306F100854513058030EF50CF
:10405800811D17E6FF1F1306E62EC14513056030C4
:10406800EF50611C0564930504C80D45EF20F06608
:10407800930504C81145EF20506603C504001306D4
:1040880004C88545EF00702E1306047C624403C5FE
:104098000400F240D244894505616F00102D41119A
:1040A800054506C6EFE03FA11305800497C0FF1F32
:1040B800E780E04B85457D55EFE08FE785457D55E9
:1040C800EFE0EFF0EFE01FBEEFE09FCCEF5081474D
:1040D8003D3F97D0FF1FE780C0F8411122C426C298
:1040E80006C6AA8455202A842685B1291DC197E5CC
:1040F800FF1F83A5E54D2685EFC0C11D6351A002B2
:10410800EFC0D14F930720021CC117E4FF1F0324FF
:10411800E44BB2402285224492444101828097E5D3
:10412800FF1F83A5254B2685EFC02124E35305FEF9
:10413800EFC0D14C930720021CC113040000D1BF6B
:10414800411122C426C206C6AA84612C2A84A685E7
:104158002685EFC071111DE1930500002685EFC08B
:10416800C120635D0500EFC07149930710029305F4
:1041780000001CC12E85EFB071612A84B2402285EF
:10418800224492444101828001119317150022CCE8
:1041980006CE26CA4AC84EC652C456C285833707B9
:1041A800807F2A84AA856369F71C1359F501639EE9
:1041B800E70063150922F24022856244D24442494D
:1041C800B249224A924A056182803777B142130781
:1041D8007721635CA7006244F240D2444249B24965
:1041E800224A924A0145056191AE6352050237F7AA
:1041F800CF421307571B637CF7006244F240D24456
:104208004249B249224A924A014505611DA63777BB
:10421800B13E130787216378F7123717853F1307D5
:104228001759931429006369F70C9387C197A697C8
:104238008C432285EFC0814A93874197A69703AAAA
:1042480007008544B3842441AA89B3842441D285D4
:104258004E85EFC0A1482A84A2852285EFC0611A45
:1042680097E5FF1F83A545382A89EFC0811997E58F
:10427800FF1F83A5A537EFC06146CA85EFC0611847
:1042880097E5FF1F83A5C536EFB0D119CA85EFC0E2
:10429800411797E5FF1F83A5E535EFC02144CA857F
:1042A800EFC0211697E5FF1F83A50535EFB09117DD
:1042B800CA85EFC00115AA852285EFC02142AA85CB
:1042C8002A892285EFC0E113AA8ACDEC97E5FF1F62
:1042D80083A5C5324A85EFC06140AA855685EFB0EF
:1042E800F14AA285EFC0813FAA8517E5FF1F032584
:1042F8006522EFC0A13E59A097E5FF1F83A5C52DF4
:104308002285EFC0011093874198A6978C43EFB0A0
:104318007111EFC02179AA84EFC0F10397E5FF1F5F
:1043280083A5C52B2A89EFC0C10DAA852285EFC0B8
:10433800E13AAA8997E5FF1F83A5852A4A85EFC038
:10434800410C2A8A29B73707003463FBE70297E54F
:10435800FF1F83A525292285EFB0D10C97E5FF1F04
:1043680083A5451BEFB01177635CA00097E7FF1F9B
:104378009387471A8C432285EFB0D10A2A8425BD3A
:104388008144D9BDCA8517E5FF1F03252527EFC03E
:10439800E134AA855685EFB0713FAA855285EFC0F2
:1043A800E133CE85EFC08133AA8517E5FF1F0325CA
:1043B8006516EFC0A132930730F863C6F400DE0437
:1043C8003384A400CDBB93844406DE0497E5FF1F25
:1043D80083A505232695EFC0C1024DB7130400003D
:1043E800D9BB01119317150022CC06CE26CA4AC89C
:1043F8004EC652C48583B706807F2A8463E3D702FA
:10440800AA85EFC00100AA852285EFB0B1012A84F0
:10441800F24022856244D2444249B249224A0561A7
:104428008280FDD7AA8763590500AA85EFC0012BB2
:10443800AA85EFB0B135E1BFE98E13577541CDC6F6
:10444800B70680001386F6FF130717F8F18FD58F8C
:104458009376170091C2860713541740860765465E
:1044680081440145B7060001B305D5003E8763C7FF
:10447800B7003385D5003387B740B6947D169317B8
:104488001700858275F231C3138901819389C18030
:104498000325090083A50900032A0900EFC00124A8
:1044A800AA855285EFB0716C6341A002032509000B
:1044B80083A5090003290900EFB0C176AA854A85BA
:1044C800EFB0B16A6356050289048584B707003FD7
:1044D800BE945E0426942DBF8607850633F6B70082
:1044E80065DEFD16158FA9BF8146B7058000FDB7AB
:1044F8008504F998D9BF411122C426C206C62A8468
:10450800AE84EFC0B10F04C1B24022852244924468
:1045180041018280411106C619C9370500802D8DD9
:10452800EFB0316EB240930520024101E9B72E8504
:10453800C5BF97E5FF1F83A5E50CE9BF97E5FF1FFA
:1045480083A5850CC1BF0605B707807F0581332584
:10455800F500828023AC05FE1C4191E701000100B3
:104568000CC18280BA8703A787FF6DFF23ACB7FE13
:104578008280411122C426C237C4004006C6832463
:10458800C420232604200F10000009E923269420C4
:104598001545B24022449244410182800347E5FF19
:1045A8009307F00F6306F700232694201145D5B72B
:1045B80097E0FF1FE78020AE014523269420D1BF56
:1045C800411126C24AC0B7C4004006C622C403A986
:1045D800C42023A604200F10000009E923A62421E3
:1045E800B2402244924402494101828095659385F4
:1045F80005D0C98D2A842105C2054205C1814181A2
:1046080097E0FF1FE780409A01CDFD572320050062
:10461800231285002303F50023A624212105C9B709
:1046280023A6242101456DBF411126C2B7C700400A
:1046380006C622C483A4C72023A607200F100000A3
:104648009707002093874799904301440147B28711
:1046580091E711E8A165EF00807A35A083C6E7FFEE
:10466800639DA60221C0832684FF631FC402170727
:1046780000202323D7967D57232C04FE230FE4FE26
:10468800F1DBA1659D2E2285B2402244B7C70040C8
:1046980023A6972092444101828011E03E8783A798
:1046A80087FF7DB73E84E5BF232CD7FEE9B74111CC
:1046B80026C24AC0B7C4004006C622C403A9C42003
:1046C80023A604200F10000089E523A62421154500
:1046D80015A02A849707002083C757902E856375F5
:1046E800F400894763EE87006935B7C7004023A601
:1046F80027210D45B240224492440249410182805B
:1047080083A785FF99E703C7E5FF9307F00F6308C1
:10471800F7008535B7C7004023A627214DBF238F53
:1047280085FE170500201305258B2D35A1652285EB
:10473800E924014523A6242175BF9707002023AD4E
:1047480007888280970700209387078E9C4399E308
:104758003E85828003D727006316B70003C707008A
:10476800E308A7FEDC47E5B7C9C1797122D406D6AC
:1047780026D24AD04ECE01444147B3D78540858BD7
:10478800A5C31205314722953305E5029707002096
:104798009387878D03A907008544B3948400C204D6
:1047A800C180BE892A990327090011C7032549003A
:1047B8002EC60297B24531473304E40283A70900A5
:1047C8003E941C4489E72320090023220900B250A3
:1047D8002254A58D02599254F2492E854561828052
:1047E8000504E31CE4F88144DDB72E85828041117D
:1047F8001397050122C406C626C24AC041872E84E3
:10480800635F0700153519C1EFF0BFD6A1673D8C6E
:104818002285B24022449244024941018280EDD966
:10482800AA8701474146B356E440858A8DCE920750
:10483800BA97B146B387D702970600209386C682F7
:1048480003A906008544B394E400C204C1803E99DC
:104858008327090003254900829723200900232282
:104868000900258C75B70507E31FC7FA8144D5BF32
:10487800411126C2B7C7004006C622C483A4C72078
:1048880023A607200F10000097F7FF1F9387077ACA
:104898009C531384418199C782971C403E9523AA53
:1048A800A18039A097F7FF1F938787779C43EDF77F
:1048B8001C40374703001307D73FB387E70237A7E2
:1048C8002600130737ECB240BA9723AAF180B7C77E
:1048D800004023A697200840224492444101828048
:1048E800797126D2B7C7004006D622D44AD04ECE18
:1048F80052CC56CA5AC85EC662C483A4C72023A62F
:1049080007200F10000005E123A697200945B250A3
:10491800225492540259F249624AD24A424BB24B4B
:10492800224C4561828097F7FF1F9387676F9C43EE
:10493800BA8A368AB28B2E8BAA89829797F7FF1F7D
:104948009387877298433E890144B146C147330C27
:10495800D40233068701104241EAC165938505F008
:10496800414597D0FF1FE780206405E197F7FF1FB7
:104978009387C76B9C5B81C7814511458297B7C7F1
:10498800004023A697202D4559B797F7FF1F938717
:10499800A769984331E797F7FF1F23A7A768230064
:1049A80005008327090005473317870023260500DC
:1049B800232475012311E50023225501E29723A042
:1049C800370123A2670123A4570163040A002300C7
:1049D8008A00B7C7004023A6972001450DBF3E8730
:1049E8005C47F5FF48C765BF0504E312F4F6B7C78F
:1049F800004023A69720214519BFB7C7004083A6CA
:104A0800C72023A607200F10000017F7FF1F034732
:104A1800F75C6373E50217F6FF1F1306A66013170A
:104A2800150008423A9503570500D98D2310B500A3
:104A380023A6D7200145828023A6D7200D45828052
:104A4800B7C7004083A6C72023A607200F10000081
:104A580017F7FF1F034797586375E50217F6FF1FFF
:104A68001306465C13171500084293C5F5FF3A95DF
:104A780003570500F98D2310B50023A6D72001455B
:104A8800828023A6D7200D458280011126CA37C708
:104A9800004006CE22CC4AC84EC652C48324C72042
:104AA800232607200F100000130705FF1377F70FC1
:104AB800FD4763E6E70AB146B306D50297F7FF1F3D
:104AC8009387875A984336971C43D1CB135A45008E
:104AD80005443D893315A4001314050141802E892E
:104AE8005285A285EFF01FC6AA8929CDA2855285D5
:104AF800813F97F7FF1F9387A7529C43829797F7A9
:104B0800FF1F83D7A757338727032A8481461306B5
:104B18000064B3B7270313050732B335E500BE9524
:104B2800EF90712BB307850097F6FF1F9386865485
:104B38003E87D44263E4A70063E4D7003387D740B5
:104B480023A4E900B7C7004023A697200145F240F7
:104B58006244D2444249B249224A05618280B7C7B9
:104B6800004023A697200945DDB7797126D24ECE9D
:104B7800B7C4004006D622D44AD052CC56CA5AC826
:104B88005EC683A9C42023A604200F10000097F74F
:104B9800FF1F83C7B744637AF50097F7FF1F938712
:104BA800274883AB070063970B00B7C7004023A6CD
:104BB8003721A9A017FBFF1F130BCB4B832A4B00F0
:104BC800B74736FE938707C82E8A97F5FF1F83D508
:104BD800E54ABE9AB387C5022A8432898146B3B5AD
:104BE800C50213850732B337F50013060064BE9576
:104BF800EF90711E63F0AA0223A634210145B2503A
:104C0800225492540259F249624AD24A424BB24B58
:104C180045618280829B97F5FF1F83D52546B38720
:104C28002503AA84130600648146B3B525031385BA
:104C38000732B337F500BE95EF90F119B307950029
:104C4800BE8403274B0063E4A70063E4E700B38452
:104C5800E740D2852285EFF0FFAE01C904C5B7C78A
:104C6800004023A63721054559BF936504F0C205C6
:104C7800C181414597D0FF1FE780003319E997F7B5
:104C8800FF1F9387A73A9C5B8DD3A2851145829716
:104C980029BF97F7FF1F938727399C439DE397F711
:104CA800FF1F23A3A73885472326050004C5231122
:104CB800450123008500A300F5002322050045B720
:104CC800BA87D84775FFC8C7F9BF79714ECEB7C73D
:104CD800004006D622D426D24AD052CC56CA5AC848
:104CE8005EC662C466C26AC083A9C72023A607201D
:104CF8000F10000035C141443689B28A2E8AAA8431
:104D0800B14C17FBFF1F130B2B36054D130C00037B
:104D1800B30B940303270B005E971C43B9EF9375FD
:104D2800F400B315BD0013554440C2055686C18131
:104D38001375F50F1D3D31C183270B00DE9784C322
:104D480023A247016304090023008900B7C7004074
:104D580023A63721014521A023A637210945B250B2
:104D6800225492540259F249624AD24A424BB24BF7
:104D7800224C924C024D456182800504E31A84F965
:104D8800B7C7004023A637212145D1BF011122CC46
:104D980026CA4AC84EC6B7C7004006CE03A9C720D0
:104DA8002A84AE89B28423A607200F100000753B21
:104DB8002285CE85EFF01F992A8405C597F5FF1F38
:104DC80083D5C52BB3879502130600648146B3B516
:104DD800950213850732B337F500BE95EF90A17F92
:104DE80048C013351400F2406244B7C7004023A6F8
:104DF8002721D2444249B2490E050561828001113A
:104E080022CC4AC84EC6B7C7004006CE26CA83A9D8
:104E1800C7202A892E8423A607200F100000EFF050
:104E28007F92AA8419C123110500A2854A85EFF053
:104E38003FC197F7FF1F83C7671A639B270197F73F
:104E4800FF1F83D7A71D5D8C97F7FF1F2398871C2B
:104E5800B7C7004023A63721014591E01945F24024
:104E68006244D2444249B24905618280011126CA8E
:104E78004AC8B7C4004006CE22CC4EC603A9C420F7
:104E880023A604200F1000009307F00263E8A7048C
:104E9800B1473304F50297F9FF1F9389E91C83A7EB
:104EA8000900A2979C439DCB9377F5008545B39560
:104EB800F500C205C1811181993783A70900014511
:104EC800A29723A0070023A2070023A62421F240CB
:104ED8006244D2444249B24905618280B7C7004062
:104EE80023A627210945E5B7411126C206C622C4D3
:104EF800B7C7004083A4C72023A607200F100000CF
:104F0800EFF05F8419E90145B2402244B7C7004079
:104F180023A6972092444101828097F7FF1F938729
:104F280027109C430045829797F7FF1F93878714A4
:104F38006368A402D843B74636FE938606C833058D
:104F4800A4403697E371E5FC13070064B335E50226
:104F580003D6870081463305E502EF90C1676DB738
:104F6800D8433A94C1BF0111680006CE22CC26CAA4
:104F7800EFC0F00CFD57630BF50AB247DDC397F796
:104F8800FF1F9387270F97F4FF1F938424059448E6
:104F9800D8433E846387E60297F7FF1F9387470845
:104FA8009C438297B247984863F3E7003E87B3076C
:104FB800A7003E85544063E4E70063E4D7003385E7
:104FC800D74017F4FF1F130464241C4C81CF97F7B4
:104FD800FF1F9387A72A94433707CDFF7D179C4669
:104FE800F98F9CC611E597F7FF1F9387A708C84359
:104FF80097F7FF1F93878703DC53829719E51C4CAB
:105008008DC3EFE05009EFD0705E1C4C99CB97F739
:10501800FF1F9387A7269843B70633001C47D58FF1
:105028001CC7F2406244D2440561828097F4FF1F96
:105038009384C4FA17F4FF1F1304C4039448584018
:1050480097F7FF1F9387C7FD9C436393E6028297F8
:105058005440B74736FE938707C8B6973387A700EB
:105068003A856364F700E36ED7F43305D74091BF00
:10507800829794485840B387A6003E8563E4D700DA
:10508800E3E1E7F43385E7402DBF411106C697F702
:10509800FF1F23AFA7FC0295B24097F7FF1F23AB72
:1050A800A7F4014541018280914763E9B7008A0569
:1050B80097F7FF1F938747F5BE9588C1828097F7BA
:1050C800FF1F23A5A7FA11C5854717F7FF1F230858
:1050D800F7F4828041115146814517F5FF1F1305EA
:1050E800A5F206C697F7FF1F23A007F497F7FF1F3F
:1050F80023A007F897F7FF1F23A407F297F7FF1FCE
:10510800238F07F097F7FF1F23A207F697C0FF1F0B
:10511800E780C03E13068002814517F5FF1F13057F
:10512800E5EB97C0FF1FE780603DEF40614B97F7C5
:10513800FF1F83C7F7F013D527008D8B3E958D474A
:105148003305F502854539051375F50F97F7FF1FE8
:105158002387A7E899473305F5021305052497D057
:10516800FF1FE78060E417F7FF1F232FA7EE59CD35
:10517800994717F6FF1F034686E63306F602814570
:105188001306062497C0FF1FE780403797F7FF1FD5
:10519800938787ED9C439387072417F7FF1F2323E3
:1051A800F7E617F7FF1F034787E30A07BA9717F7CA
:1051B800FF1F2329F7E6EFF04FD8B92997F7FF1F0C
:1051C800938747E4944397F7FF1F83C737E1139703
:1051D8002700369717F6FFFF1306465910C31387A3
:1051E80017001377F70F0A07369717F6FFFF13060E
:1051F800466010C313873700890793F7F70F8A07AC
:1052080097F5FF1FA38CE5DCB69790C3B240410128
:10521800828097F7FF1F83C777DC17F7FF1F0347C5
:1052280007DC63F3E70217F7FF1F1307A7DD18432F
:105238009386170017F6FF1FA302D6DA9396270066
:10524800369708C33E8582809307F00FE5BF1C415F
:105258006383071441777D8FB70600208947631D54
:10526800D7120357450063090712411122C4194692
:105278002A849305F00F610506C697C0FF1FE780D3
:10528800403A05478D476303E5101C4491C75858B9
:1052980099476DCF185C7DCB1306C003814517F580
:1052A800FF1F1305A5D897C0FF1FE7802025130609
:1052B800C003A28517F5FF1F130545D797C0FF1F29
:1052C800E780201D17F7FF1F035707D797F7FF1F22
:1052D8009387C7D519E71307001097F6FF1F239D7B
:1052E800E6D417F7FF1F034747D511E7054797F699
:1052F800FF1F2384E6D417F7FF1F035727D411E7AE
:105308006D4797F6FF1F239BE6D217F7FF1F03474A
:10531800D7D211E7154797F6FF1FA380E6D217F7F4
:10532800FF1F0347C7D111E7054797F6FF1F2388DB
:10533800E6D017F7FF1F034797D019E703C7F70011
:1053480097F6FF1FA38DE6CE17F7FF1F034747CF3A
:1053580011E7554797F6FF1F2384E6CE03476401FC
:1053680019E71307C00397F6FF1F238CE6CC9C5759
:1053780091C7829797F7FF1F2396A7C6FD5717F780
:10538800FF1FA30FF7F4EFF0FFD48147B240224488
:105398003E854101828089473E85828001114EC643
:1053A80097F9FF1F938909CD83A7090006CE22CC60
:1053B80026CA4AC852C4829713090064B335250324
:1053C80003DA89008146528633052503EF90A12030
:1053D80097F7FF1F938787C0804FAA84014563060C
:1053E800940233858440636E940003A54900528675
:1053F8008146B335A9023305A902EF90C11D018D7D
:10540800269597F7FF1F23A797BEF2406244D24420
:105418004249B249224A0561828097F7FF1F83D724
:1054280007C651471D45637CF702794719456378DC
:10543800F7021307200315456373F7021307B00437
:105448001145637EF700130740060D456379F700A1
:105458001307600909456374F70013B5B70F828015
:10546800011122CC06CE2A842EC6EFF06FC0B245B9
:10547800F240818D33A5A502229562441375F50F7C
:1054880005618280011122CC06CE2A842EC6EFF057
:105498002FBEB245F240818D33A5A5022295624404
:1054A8004205418105618280011122CC06CE2A8401
:1054B8002EC6EFF0EFBBB245F240818D33B5A502A1
:1054C800229562440561828097F7FF1F938707B68C
:1054D800985739CB411122C426C206C6BE8402970A
:1054E80017F7FF1F035707B02A8415CBBA876373D2
:1054F800A700AA87C207C183BA866373E400A2869D
:10550800C206C182958F5147635BF700DC5491C393
:105518008297EFE0402197F7FF1F239587ACB240B1
:105528002244924441018280828097F7FF1F83C7FB
:1055380027B599C7054582800545F24005618280F7
:1055480097F7FF1F938787AEDC57011106CEAA8510
:1055580081C72AC68297B245B5CD9C41F1DFDC41AF
:10556800E1DF83D78500E9DB83D7A500F1D7414682
:1055780017F5FF1F130505B097C0FF1FE78060F1FF
:1055880097F7FF1F938707AF9C4317F7FF1F232940
:10559800F7A897F7FF1F83C7D7AA8DE79307805708
:1055A80017F5FF1F035585AD3305F50237460F0084
:1055B8001306062481468145EF90E10197F7FF1F06
:1055C800A381A7A817050000130585DDEFF0FFAB41
:1055D8000145A5B797F7FF1F23A007A297C7FF1F8D
:1055E8009387074217F7FF1F2326F7A87D5797F7DA
:1055F800FF1F23A3E7A8B7873200938727A197F651
:10560800FF1F23ADF6A697F7FF1F238B07A6B7C783
:10561800004023A4E726ADB7011122CC17F4FF1FE1
:105628001304C4A0084406CE26CA4AC801E90545A1
:10563800F2406244D2444249056182805C58E5DB0D
:10564800185C75D77000854582971844B247E30007
:10565800F7FE9305E00417F5FF1F0355E59D97D066
:10566800FF1FE780609417F7FF1F2329A79861D1D0
:1056780017F6FF1F0356469C9305F00F97C0FF1FB0
:10568800E780C0E7814417F9FF1F1309299597F7A9
:10569800FF1F83C7879A0326090263C1F402328574
:1056A80097D0FF1FE780209F014597F7FF1F23A78B
:1056B800079497F7FF1F23A507949DBF97F5FF1F32
:1056C80083D58597B38795020844185C898185043A
:1056D8003E9508C2029765BF011156C297FAFF1F8F
:1056E800938ACA9483A78A0022CC4AC84EC606CE9B
:1056F80026CA52C45AC0AA892E84328963860722D0
:1057080003A74A03630907141307F01F6367A71465
:1057180097F4FF1F9384848C03AA040263170A0A70
:105728009565938515E017F5FF1F0355E59097D00C
:10573800FF1FE780608797F7FF1F23A1A78C2A86A2
:10574800630B051083A74A0303A58A0097F5FF1F7B
:1057580083D5858E8981829783A78A0003AA04024C
:1057680017F7FF1F232EF7888947639CF908C1475D
:105778006313F40E97F5FF1F83D5058C938505FCFD
:105788009147B3C5F5028A05D29503C7250093074B
:10579800A005631EF70A83D70500639A370B4A856D
:1057A8002286910597C0FF1FE780A0CE9C505285A6
:1057B800639347150145F2406244D2444249B249D5
:1057C800224A924A024B05618280D850E38EE7F85C
:1057D8009565938525E017F5FF1F0355E58597C067
:1057E800FF1FE780607C2A8A3DC52A8683A74A0373
:1057F80003A58A0097F5FF1F83D5058489818297C1
:10580800A5B78D47639DF900C1476316F40497F562
:10581800FF1F83D56582938545FDF199B5B79147FB
:10582800639AF9006319340397F5FF1F83D5C58080
:10583800A115E5B793070010639FF900A14763EC32
:10584800870097E5FF1F83D5257FC115F9B79C50C1
:1058580052856396470D2945B9BF1D6A568B6371FA
:10586800450B130A05E01947334AEA0217E7FF1FF9
:105878000357877C97EAFF1F938A4A76330AEA021E
:105888003E9A83A74A026395470183A40A029DE4CE
:105898009305E00417E5FF1F0355057A97C0FF1F1E
:1058A800E7808070AA8445D983274B0397E5FF1FBB
:1058B80083D585782A8689815285829791451307F1
:1058C800A005898193972500A69783C6270063932F
:1058D800E60483D60700639C360385058A0522867D
:1058E800A6954A8597C0FF1FE780A0BA83A70A023A
:1058F800E38297EC268597C0FF1FE780C0795DBDDE
:1059080021677917E369A7F4330A454185B783C549
:10591800370045BF83A70A02E38F97F2268597C011
:10592800FF1FE780407705BF97E7FF1F9387076B47
:105938008C5395D191479306A00589831397270027
:105948002E9703462700E318D6F003560700631C7A
:10595800360185078A072286BE954A8597C0FF1FAC
:10596800E78020B381BD83473700C1BF97E7FF1F9A
:105978009387C76B984739C79C5FA9C705476313C7
:10598800E504411122C417E4FF1F130424651050D5
:1059980006C60DC6485097E5FF1F83D5E56989817E
:1059A8008297085097C0FF1FE780E06E97E7FF1FB8
:1059B80023A6076497E7FF1F23A40764B240224485
:1059C800410182808280011117E7FF1F13070766D4
:1059D8004EC68329870022CC26CA4AC806CE52C49E
:1059E80056C2AA842E843289638B09201C5FBA8A26
:1059F80099EB2945F2406244D2444249B249224ACD
:105A0800924A056182805C5BEDD79307F01F63EAD9
:105A1800A70E97E9FF1F9389695C83A70902B1CB99
:105A280003A58A0083A749026395A706894763935C
:105A3800F408C147E31FF4FA17E5FF1F0355C55FD4
:105A48009147130505FC3345F5029317250003A577
:105A580009022286CA853E959307A0052301F50011
:105A680023109500110597C0FF1FE78080A201450C
:105A780051B79305E00417E5FF1F0355E55B97C091
:105A8800FF1FE780605297E7FF1F23A9A75649F930
:105A98008DB783A74A0303A6090297E5FF1F83D59D
:105AA800A5598981829783A78A0017E7FF1F2329B1
:105AB800F754ADBF8D47639EF400C147E31BF4F272
:105AC80017E5FF1F03554557130545FD9377C5FF98
